:080000000C9436000C94000082
:100008000C9400000C9400000C9400000C94000068
:100018000C9400000C9400000C9400000C946300F5
:100028000C9400000C9400000C9400000C94000048
:100038000C9400000C9400000C9400000C94000038
:100048000C9400000C9400000C94000000000900BF
:100058000A000600050002000400540007006001C1
:1000680056000000F894EE27ECBBF1E0FBBFEBBFB5
:10007800E5BF8DE0A2E0BB27ED938A95E9F780E024
:1000880094E0A0E6ED930197E9F7EEE5F0E08591BD
:100098009591009761F0A591B59105901590BF01D4
:1000A800F00105900D920197E1F7FB01F0CFEFE524
:1000B800EDBFE4E0EEBFC0E6D1E00C9497000A92F1
:1000C800AA93BA93EA93FA93EFB7EA93E6E0E2BF0A
:1000D800F201A0E6B1E0EE0FFF1FAE0FBF1FEC91DB
:1000E800EBBB00240614070464F4E3E0F0E04E16CA
:1000F8005F0624F4F20131962F0102C044245524EE
:100108000AC00024041405041CF4F201319702C04B
:10011800E3E0F0E02F01E991EFBFF991E991B9919E
:10012800A9910990189544245524E1E0F0E03F0195
:10013800EFEFEABBE0E0EBBBE4BBE5BBE3E0E3BF2A
:10014800E0E0E2BFECBFE1E0E9BF78949A9903C030
:10015800E1E0F0E002C0EFEFFFEF3F01F7CFFFCFA4
:00000001FF
